:100000000C945E000C9486000C9486000C94860080
:100010000C9486000C9486000C9486000C94860048
:100020000C9486000C9486000C9486000C94860038
:100030000C9486000C9486000C9486000C94860028
:100040000C9478020C9486000C94E8020C94C20282
:100050000C9486000C9486000C9486000C94860008
:100060000C9486000C948600000000080002010039
:100070000003040700000000000000000000000072
:10008000250028002B0000000000240027002A0083
:10009000040404040404040402020202020203032E
:1000A0000303030301020408102040800102040836
:1000B00010200102040810201A03F70411241FBEA7
:1000C000CFEFD8E0DEBFCDBF22E0AAE6B1E001C0AD
:1000D0001D92AA31B207E1F711E0A0E0B1E0E8E932
:1000E000FEE002C005900D92AA36B107D9F710E0E4
:1000F000CDE5D0E004C02197FE010E943405CC3547
:10010000D107C9F70E948E030C943F070C9400009E
:1001100090E0FC01EC55FF4F2491FC01E057FF4FAC
:100120008491882399F090E0880F991FFC01EA5789
:10013000FF4FA591B491FC01E458FF4F8591949134
:100140008FB7F894EC91E22BEC938FBF089590E079
:10015000FC01E859FF4F2491FC01EC55FF4F34910D
:10016000FC01E057FF4FE491EE2309F43CC0222349
:1001700039F1233091F038F42130A9F0223001F523
:1001800084B58F7D12C0273091F02830A1F0243043
:10019000B9F4809180008F7D03C0809180008F77BB
:1001A000809380000DC084B58F7784BD09C0809195
:1001B000B0008F7703C08091B0008F7D8093B00036
:1001C000F0E0EE0FFF1FE458FF4FA591B4919FB7E9
:1001D000F894611104C08C913095382302C0EC91E1
:1001E0003E2B3C939FBF08953FB7F89480916F01D9
:1001F00090917001A0917101B091720126B5A89BF8
:1002000005C02F3F19F00196A11DB11D3FBFBA2FA8
:10021000A92F982F8827820F911DA11DB11DBC0108
:10022000CD0142E0660F771F881F991F4A95D1F7CD
:100230000895CF92DF92EF92FF920F931F93CF9387
:10024000DF936C017A018B01C0E0D0E0CE15DF05B1
:1002500081F0D8016D918D01D601ED91FC91019055
:10026000F081E02DC6010995892B11F02196EECF82
:100270007E01C701DF91CF911F910F91FF90EF9009
:10028000DF90CF900895089580E090E00895FC01FC
:10029000538D448D252F30E0842F90E0821B930BEB
:1002A000541710F0CF96089501970895FC01918D91
:1002B000828D981761F0828DDF01A80FB11D5D96C8
:1002C0008C91928D9F5F9F73928F90E008958FEF36
:1002D0009FEF0895FC01918D828D981731F0828DEA
:1002E000E80FF11D858D90E008958FEF9FEF089541
:1002F000FC01918D228D892F90E0805C9F4F821BA5
:1003000091098F739927089583E791E00E947801FE
:1003100021E0892B09F420E0822F0895FC01848DCF
:10032000DF01A80FB11DA35ABF4F2C91848D90E01F
:1003300001968F739927848FA689B7892C93A089FA
:10034000B1898C91837080648C93938D848D981384
:1003500006C00288F389E02D80818F7D8083089517
:10036000EF92FF920F931F93CF93DF93EC0181E005
:10037000888F9B8D8C8D981305C0E889F9898081C1
:1003800085FD26C0F62E0B8D10E00F5F1F4F0F73FB
:100390001127E02E8C8DE8120CC00FB607FCFACFA7
:1003A000E889F989808185FFF5CFCE010E948E0111
:1003B000F1CF8B8DFE01E80FF11DE35AFF4FF08264
:1003C0009FB7F8940B8FEA89FB89808180620AC00D
:1003D0009FB7F894EE89FF896083E889F989808165
:1003E0008370806480839FBF81E090E0DF91CF9134
:1003F0001F910F91FF90EF900895CF93DF93EC0141
:10040000888D8823C9F0EA89FB89808185FD05C034
:10041000A889B9898C9186FD0FC00FB607FCF5CF6E
:10042000808185FFF2CFA889B9898C9185FFEDCFB6
:10043000CE010E948E01E7CFDF91CF91089580E039
:1004400090E0892B29F00E94840181110C94000016
:100450000895FC018091140290911502892B21F4DA
:1004600021E0309749F413C080911002909111025D
:10047000309731F421E0FC018081882341F006C0EF
:10048000BF010E942F0721E0892B09F020E0822F75
:100490000895CF93DF93EC018091100290911102A7
:1004A000009739F020911202309113022C173D076A
:1004B000B8F4BE016F5F7F4F0E945B06009791F01A
:1004C0009093110280931002D0931302C0931202F2
:1004D0002091140230911502232B11F4FC0110829B
:1004E00081E001C080E0DF91CF9108950E94210753
:1004F0001F920F920FB60F9211242F933F938F9359
:100500009F93AF93BF9380916B0190916C01A091E9
:100510006D01B0916E0130916A0123E0230F2D37F8
:1005200020F40196A11DB11D05C026E8230F0296F7
:10053000A11DB11D20936A0180936B0190936C0102
:10054000A0936D01B0936E0180916F019091700145
:10055000A0917101B09172010196A11DB11D80930E
:100560006F0190937001A0937101B0937201BF91DC
:10057000AF919F918F913F912F910F900FBE0F9050
:100580001F9018951F920F920FB60F9211242F9360
:100590003F934F935F936F937F938F939F93AF930B
:1005A000BF93EF93FF9383E791E00E948E01FF9149
:1005B000EF91BF91AF919F918F917F916F915F91DB
:1005C0004F913F912F910F900FBE0F901F90189554
:1005D0001F920F920FB60F9211242F938F939F9318
:1005E000EF93FF93E0918301F09184018081E0918A
:1005F0008901F0918A0182FD12C0908180918C0165
:100600008F5F8F7320918D01821751F0E0918C01E3
:10061000F0E0ED58FE4F958F80938C0101C08081F2
:10062000FF91EF919F918F912F910F900FBE0F909F
:100630001F901895109276011092750188EE93E044
:10064000A0E0B0E08093770190937801A0937901C6
:10065000B0937A018AE091E09093740180937301E2
:1006600085EC90E09093800180937F0184EC90E092
:10067000909382018093810180EC90E090938401BB
:100680008093830181EC90E09093860180938501B3
:1006900082EC90E0909388018093870186EC90E053
:1006A00090938A018093890110928C0110928D01A0
:1006B00010928E0110928F0110921102109210026E
:1006C000109213021092120210921502109214024C
:1006D00080E090E00E9449022091100230911102C6
:1006E000811113C02115310519F0C9010E94D205ED
:1006F0001092110210921002109215021092140220
:100700001092130210921202089510921502109284
:1007100014026AE171E0C9010C943807CF93DF93AA
:1007200000D0CDB7DEB7789484B5826084BD84B53F
:10073000816084BD85B5826085BD85B5816085BDDC
:1007400080916E00816080936E0010928100809194
:10075000810082608093810080918100816080931C
:100760008100809180008160809380008091B10041
:1007700084608093B1008091B00081608093B0006C
:1007800080917A00846080937A0080917A00826000
:1007900080937A0080917A00816080937A008091C2
:1007A0007A00806880937A001092C100E091830102
:1007B000F091840182E08083E0917F01F0918001DB
:1007C0001082E0918101F09182018FEC8083109280
:1007D0008B01E0918701F091880186E08083E091B0
:1007E0008501F0918601808180618083E09185019F
:1007F000F0918601808188608083E0918501F0918D
:100800008601808180688083E0918501F091860176
:1008100080818F7D808386E00E94880085E00E9431
:10082000880084E00E94880083E791E00E947801BC
:10083000892B09F44BC00E94F4004B015C0183E05A
:10084000C82ED12CE12CF12C0E94F400DC01CB014C
:1008500088199909AA09BB09883E9340A105B105E9
:1008600098F321E0C21AD108E108F10888EE880E59
:1008700083E0981EA11CB11CC114D104E104F10451
:1008800019F783E791E00E94560189831A8200914B
:100890001402109115020F5F1F4FC8010E944902F8
:1008A000882311F2209110023091110280911402DC
:1008B00090911502BE016F5F7F4F820F931F0E94C0
:1008C00038071093150200931402AECF4091140222
:1008D000509115024115510509F486C0609110022E
:1008E0007091110283E791E00E94190142E050E00B
:1008F00068E171E083E791E00E9419018BE191E0EA
:100900000E942902811136C084E291E00E942902EE
:10091000811140C08EE291E00E942902882311F0EB
:1009200061E007C085E391E00E942902882319F065
:1009300060E085E031C08DE391E00E9429028823C8
:1009400011F061E007C08BE491E00E942902882346
:1009500019F060E084E020C08AE591E00E9429025D
:10096000882351F061E084E00E94A70061E085E007
:100970000E94A70061E00FC081E691E00E94290279
:10098000882361F060E084E00E94A70060E085E0D9
:100990000E94A70060E086E00E94A70080E090E04F
:1009A0000E9449022091100230911102811113C05E
:1009B0002115310519F0C9010E94D20510921102CA
:1009C000109210021092150210921402109213024B
:1009D0001092120209C010921502109214026AE1DC
:1009E00071E0C9010E9438070E941F021DCF80914B
:1009F0001002909111020C94D2052F923F924F92C7
:100A00005F926F927F928F929F92AF92BF92CF929E
:100A1000DF92EF92FF920F931F93CF93DF93CDB7A7
:100A2000DEB7CA1BDB0B0FB6F894DEBF0FBECDBF1F
:100A300009942A88398848885F846E847D848C84F0
:100A40009B84AA84B984C884DF80EE80FD800C81F9
:100A50001B81AA81B981CE0FD11D0FB6F894DEBFDC
:100A60000FBECDBFED010895EE0FFF1F0590F4916D
:100A7000E02D09940F931F93CF93DF93823091055C
:100A800010F482E090E0E0911802F091190220E069
:100A900030E0A0E0B0E0309719F14081518102814F
:100AA000138148175907C8F08417950769F4109700
:100AB00031F012960C93129713961C9327C0009353
:100AC00018021093190222C02115310519F042179E
:100AD000530718F49A01BD01EF01DF01F801DBCFE4
:100AE00021153105F9F0281B390B2430310580F42C
:100AF0008A819B816115710521F0FB0193838283BB
:100B000004C09093190280931802FE01329644C0EB
:100B1000FE01E20FF31F8193919322503109398333
:100B200028833AC02091160230911702232B41F4FA
:100B30002091020130910301309317022093160295
:100B400020910001309101012115310541F42DB7AB
:100B50003EB74091040150910501241B350BE091F3
:100B60001602F0911702E217F307A0F42E1B3F0BB9
:100B70002817390778F0AC014E5F5F4F241735070F
:100B800048F04E0F5F1F5093170240931602819357
:100B9000919302C0E0E0F0E0CF01DF91CF911F918F
:100BA0000F910895CF93DF93009709F481C0FC0162
:100BB000329713821282A0911802B09119021097F5
:100BC00081F420813181820F931F20911602309190
:100BD00017022817390751F5F0931702E093160210
:100BE00067C0ED0120E030E0CE17DF0740F44A8116
:100BF0005B819E0141155105F1F0EA01F5CFD383E8
:100C0000C28340815181840F951FC817D90759F4B9
:100C100088819981840F951F0296918380838A81B0
:100C20009B81938382832115310529F4F093190266
:100C3000E09318023DC0E901FB83EA834991599191
:100C4000C40FD51FEC17FD0761F480819181840FDB
:100C5000951F0296E90199838883828193819B8302
:100C60008A83E0E0F0E012968D919C9113970097B3
:100C700019F0FD01DC01F7CF8D919C9111979D0139
:100C80002E5F3F4F820F931F209116023091170263
:100C90002817390769F4309729F410921902109235
:100CA000180202C013821282B0931702A093160298
:100CB000DF91CF910895A0E0B0E0E1E6F6E00C947A
:100CC0000105EC01009721F4CB010E943A05B4C064
:100CD000FC01E60FF71F9C0122503109E217F307D0
:100CE00008F4A8C0D9010D911C9111970617170798
:100CF000B0F00530110508F49BC0C80104978617B1
:100D0000970708F495C002501109061B170B0193B1
:100D100011936D937C93CF010E94D20589C05B0132
:100D2000A01AB10A4C01800E911EA0911802B09138
:100D30001902612C712CE12CF12C109709F446C09A
:100D40008D919C911197A815B905B1F56C0142E000
:100D5000C40ED11CCA14DB0478F14C018A189B081C
:100D6000640142E0C40ED11C1296BC9012971396F7
:100D7000AC91B5E0CB16D10440F0B282A38391824E
:100D80008082D9016D937C9309C00E5F1F4F800F45
:100D9000911FF90191838083EB2DFA2FE114F10467
:100DA00031F0D7011396FC93EE93129741C0F09364
:100DB0001902E09318023CC06816790608F43C0159
:100DC0007D0112960D90BC91A02DB7CF8091160297
:100DD0009091170288169906E1F466167706C8F412
:100DE0008091000190910101009741F48DB79EB769
:100DF0004091040150910501841B950BE817F907F8
:100E0000C8F4F0931702E0931602F901718360832E
:100E10000FC0CB010E943A057C01009759F0A80150
:100E2000BE010E942607CE010E94D205C70104C060
:100E3000CE0102C080E090E0CDB7DEB7EEE00C94CA
:100E40001D0581E090E0F8940C943F07FB01DC0164
:100E500002C001900D9241505040D8F70895FB0117
:100E6000DC018D91019080190110D9F3990B08953F
:100E7000FB01DC0101900D920020E1F7089510E0E4
:100E8000CDE5D0E004C0FE010E9434052196CE35A8
:080E9000D107C9F7F894FFCF68
:100E980000001A02800000000000B001190147019B
:100EA800FD01780156016A010D0A006C69676874D2
:100EB800206F6E006C69676874206F6666006661F3
:100EC8006E206F6E0066616E206F6666006E6967E1
:100ED8006874206C616D70206F6E006E696768744D
:100EE800206C616D70206F666600616C6C206F6E9F
:0A0EF80000616C6C206F666600005C
:00000001FF
